{
  "contractName": "ClinicalTrial",
  "abi": [
    {
      "constant": true,
      "inputs": [],
      "name": "startDate",
      "outputs": [
        {
          "name": "",
          "type": "uint256"
        }
      ],
      "payable": false,
      "stateMutability": "view",
      "type": "function"
    },
    {
      "constant": true,
      "inputs": [],
      "name": "proposalId",
      "outputs": [
        {
          "name": "",
          "type": "uint256"
        }
      ],
      "payable": false,
      "stateMutability": "view",
      "type": "function"
    },
    {
      "constant": true,
      "inputs": [],
      "name": "createdDate",
      "outputs": [
        {
          "name": "",
          "type": "uint256"
        }
      ],
      "payable": false,
      "stateMutability": "view",
      "type": "function"
    },
    {
      "constant": true,
      "inputs": [],
      "name": "drugName",
      "outputs": [
        {
          "name": "",
          "type": "bytes32"
        }
      ],
      "payable": false,
      "stateMutability": "view",
      "type": "function"
    },
    {
      "constant": true,
      "inputs": [],
      "name": "endDate",
      "outputs": [
        {
          "name": "",
          "type": "uint256"
        }
      ],
      "payable": false,
      "stateMutability": "view",
      "type": "function"
    },
    {
      "constant": true,
      "inputs": [],
      "name": "ipfsHash",
      "outputs": [
        {
          "name": "",
          "type": "bytes"
        }
      ],
      "payable": false,
      "stateMutability": "view",
      "type": "function"
    },
    {
      "inputs": [
        {
          "name": "_regulator",
          "type": "address"
        },
        {
          "name": "_cro",
          "type": "address"
        },
        {
          "name": "_proposalId",
          "type": "uint256"
        },
        {
          "name": "_startDate",
          "type": "uint256"
        },
        {
          "name": "_endDate",
          "type": "uint256"
        },
        {
          "name": "_drugName",
          "type": "bytes32"
        },
        {
          "name": "_ipfsHash",
          "type": "bytes"
        }
      ],
      "payable": false,
      "stateMutability": "nonpayable",
      "type": "constructor"
    },
    {
      "anonymous": false,
      "inputs": [
        {
          "indexed": false,
          "name": "msgSender",
          "type": "address"
        },
        {
          "indexed": false,
          "name": "msg",
          "type": "bytes32"
        },
        {
          "indexed": false,
          "name": "timestamp",
          "type": "uint256"
        }
      ],
      "name": "AddSubject",
      "type": "event"
    },
    {
      "anonymous": false,
      "inputs": [
        {
          "indexed": false,
          "name": "msgSender",
          "type": "address"
        },
        {
          "indexed": false,
          "name": "msg",
          "type": "bytes32"
        },
        {
          "indexed": false,
          "name": "timestamp",
          "type": "uint256"
        }
      ],
      "name": "AddDataPoint",
      "type": "event"
    },
    {
      "constant": true,
      "inputs": [],
      "name": "getSubjectsCount",
      "outputs": [
        {
          "name": "_counter",
          "type": "uint256"
        }
      ],
      "payable": false,
      "stateMutability": "view",
      "type": "function"
    },
    {
      "constant": true,
      "inputs": [
        {
          "name": "_id",
          "type": "uint256"
        }
      ],
      "name": "getSubjectById",
      "outputs": [
        {
          "name": "_subject",
          "type": "bytes32"
        }
      ],
      "payable": false,
      "stateMutability": "view",
      "type": "function"
    },
    {
      "constant": true,
      "inputs": [
        {
          "name": "_subjectId",
          "type": "uint256"
        }
      ],
      "name": "getDataCounterForSubject",
      "outputs": [
        {
          "name": "_counter",
          "type": "uint256"
        }
      ],
      "payable": false,
      "stateMutability": "view",
      "type": "function"
    },
    {
      "constant": true,
      "inputs": [
        {
          "name": "_subjectId",
          "type": "uint256"
        }
      ],
      "name": "getSubjectIdentById",
      "outputs": [
        {
          "name": "_ident",
          "type": "bytes32"
        }
      ],
      "payable": false,
      "stateMutability": "view",
      "type": "function"
    },
    {
      "constant": true,
      "inputs": [
        {
          "name": "_subjectId",
          "type": "uint256"
        },
        {
          "name": "_dataPointId",
          "type": "uint256"
        }
      ],
      "name": "getDataPointForSubject",
      "outputs": [
        {
          "name": "_timestamp",
          "type": "uint256"
        },
        {
          "name": "_json",
          "type": "bytes32"
        }
      ],
      "payable": false,
      "stateMutability": "view",
      "type": "function"
    },
    {
      "constant": false,
      "inputs": [
        {
          "name": "_subject",
          "type": "bytes32"
        }
      ],
      "name": "addSubject",
      "outputs": [
        {
          "name": "_success",
          "type": "bool"
        }
      ],
      "payable": false,
      "stateMutability": "nonpayable",
      "type": "function"
    },
    {
      "constant": false,
      "inputs": [
        {
          "name": "_subjectId",
          "type": "uint256"
        },
        {
          "name": "_json",
          "type": "bytes32"
        }
      ],
      "name": "addDataPoint",
      "outputs": [
        {
          "name": "_success",
          "type": "bool"
        }
      ],
      "payable": false,
      "stateMutability": "nonpayable",
      "type": "function"
    }
  ],
  "bytecode": "0x6060604052341561000f57600080fd5b604051610b80380380610b8083398101604052808051906020019091908051906020019091908051906020019091908051906020019091908051906020019091908051906020019091908051820191905050856000806101000a81548173ffffffffffffffffffffffffffffffffffffffff021916908373ffffffffffffffffffffffffffffffffffffffff16021790555086600160006101000a81548173ffffffffffffffffffffffffffffffffffffffff021916908373ffffffffffffffffffffffffffffffffffffffff1602179055508460028190555083600381905550826004819055508160068160001916905550806007908051906020019061011892919061012c565b5042600581905550505050505050506101d1565b828054600181600116156101000203166002900490600052602060002090601f016020900481019282601f1061016d57805160ff191683800117855561019b565b8280016001018555821561019b579182015b8281111561019a57825182559160200191906001019061017f565b5b5090506101a891906101ac565b5090565b6101ce91905b808211156101ca5760008160009055506001016101b2565b5090565b90565b6109a0806101e06000396000f3006060604052600436106100c5576000357c0100000000000000000000000000000000000000000000000000000000900463ffffffff1680630b97bc86146100ca5780630e6e1b3e146100f35780632c420201146101325780632dfca4451461016957806344fbc893146101925780634d392e49146101bb5780635188ab7b146101fa5780636207c8021461022b578063950d37c51461026a5780639f73bef1146102b9578063c24a0f8b146102e2578063c623674f1461030b578063cb758a8914610399575b600080fd5b34156100d557600080fd5b6100dd6103e1565b6040518082815260200191505060405180910390f35b34156100fe57600080fd5b6101186004808035600019169060200190919050506103e7565b604051808215151515815260200191505060405180910390f35b341561013d57600080fd5b61015360048080359060200190919050506104f7565b6040518082815260200191505060405180910390f35b341561017457600080fd5b61017c610544565b6040518082815260200191505060405180910390f35b341561019d57600080fd5b6101a561054a565b6040518082815260200191505060405180910390f35b34156101c657600080fd5b6101dc6004808035906020019091905050610550565b60405180826000191660001916815260200191505060405180910390f35b341561020557600080fd5b61020d61058c565b60405180826000191660001916815260200191505060405180910390f35b341561023657600080fd5b61024c6004808035906020019091905050610592565b60405180826000191660001916815260200191505060405180910390f35b341561027557600080fd5b61029460048080359060200190919080359060200190919050506105eb565b6040518083815260200182600019166000191681526020019250505060405180910390f35b34156102c457600080fd5b6102cc6106cb565b6040518082815260200191505060405180910390f35b34156102ed57600080fd5b6102f56106d8565b6040518082815260200191505060405180910390f35b341561031657600080fd5b61031e6106de565b6040518080602001828103825283818151815260200191508051906020019080838360005b8381101561035e578082015181840152602081019050610343565b50505050905090810190601f16801561038b5780820380516001836020036101000a031916815260200191505b509250505060405180910390f35b34156103a457600080fd5b6103c760048080359060200190919080356000191690602001909190505061077c565b604051808215151515815260200191505060405180910390f35b60035481565b60008060009054906101000a900473ffffffffffffffffffffffffffffffffffffffff1673ffffffffffffffffffffffffffffffffffffffff163373ffffffffffffffffffffffffffffffffffffffff1614151561044457600080fd5b6008805480600101828161045891906108a5565b9160005260206000209001600084909190915090600019169055507f98f911b35e4f0185da844cf074d0b20f1c07738e062e10a540d0e30abf5ff967338342604051808473ffffffffffffffffffffffffffffffffffffffff1673ffffffffffffffffffffffffffffffffffffffff1681526020018360001916600019168152602001828152602001935050505060405180910390a160019050919050565b60008060088054905083101515610511576000915061053e565b61051a83610592565b90506009600082600019166000191681526020019081526020016000208054905091505b50919050565b60025481565b60055481565b6000600880549050821015156105695760009050610587565b60088281548110151561057857fe5b90600052602060002090015490505b919050565b60065481565b6000600880549050821015156105ab57600090506105e6565b6008828154811015156105ba57fe5b906000526020600020900154604051808260001916600019168152602001915050604051809103902090505b919050565b60008060006008805490508510151561060b5760009250600091506106c3565b61061485610592565b9050600960008260001916600019168152602001908152602001600020805490508410151561064a5760009250600091506106c3565b6009600082600019166000191681526020019081526020016000208481548110151561067257fe5b9060005260206000209060020201600001549250600960008260001916600019168152602001908152602001600020848154811015156106ae57fe5b90600052602060002090600202016001015491505b509250929050565b6000600880549050905090565b60045481565b60078054600181600116156101000203166002900480601f0160208091040260200160405190810160405280929190818152602001828054600181600116156101000203166002900480156107745780601f1061074957610100808354040283529160200191610774565b820191906000526020600020905b81548152906001019060200180831161075757829003601f168201915b505050505081565b6000806107876108d1565b6000809054906101000a900473ffffffffffffffffffffffffffffffffffffffff1673ffffffffffffffffffffffffffffffffffffffff163373ffffffffffffffffffffffffffffffffffffffff161415156107e257600080fd5b6003544210806107f3575060045442115b156107fd57600080fd5b6008805490508510151561081057600080fd5b61081985610592565b9150428160000181815250508381602001906000191690816000191681525050600960008360001916600019168152602001908152602001600020805480600101828161086691906108ee565b91600052602060002090600202016000839091909150600082015181600001556020820151816001019060001916905550505060019250505092915050565b8154818355818115116108cc578183600052602060002091820191016108cb9190610920565b5b505050565b604080519081016040528060008152602001600080191681525090565b81548183558181151161091b5760020281600202836000526020600020918201910161091a9190610945565b5b505050565b61094291905b8082111561093e576000816000905550600101610926565b5090565b90565b61097191905b8082111561096d5760008082016000905560018201600090555060020161094b565b5090565b905600a165627a7a723058204f8929c099c9f948b813bbd9bb23713a558c2a5c816c8921ed3475a9ceacb4d00029",
  "source": "pragma solidity ^0.4.17;\n\nimport \"./Regulator.sol\";\n\ncontract ClinicalTrial {\n\n   address cro;\n   address regulator;\n\n   uint public proposalId;\n\n   uint public startDate;\n   uint public endDate;\n   uint public createdDate;\n\n   bytes32 public drugName;\n   bytes public ipfsHash;\n\n   event AddSubject(address msgSender,bytes32 msg,uint timestamp);\n   event AddDataPoint(address msgSender,bytes32 msg,uint timestamp);\n\n   struct DataPoint {\n      uint timestamp;\n      bytes32 json;\n   }\n\n   bytes32[]subjects;\n   mapping(bytes32 => DataPoint[]) data; // index sha3(subjectId)\n\n   modifier croOnly {\n      if(msg.sender != cro) {\n         throw;\n      }\n      _;\n   }\n\n   modifier trialIdOpen {\n      if( now < startDate || now > endDate ) {\n         throw;\n      }\n      _;\n   }\n\n   modifier dateBeforeStart {\n      if( now > startDate ) {\n         throw;\n      }\n      _;\n   }\n\n   function ClinicalTrial(address _regulator, address _cro, uint _proposalId, uint _startDate, uint _endDate, bytes32 _drugName, bytes _ipfsHash) {\n      cro = _cro;\n      regulator = _regulator;\n      proposalId = _proposalId;\n      startDate = _startDate;\n      endDate = _endDate;\n      drugName = _drugName;\n      ipfsHash = _ipfsHash;\n      createdDate = now;\n   }\n\n   function getSubjectsCount() constant returns (uint _counter) {\n      _counter = subjects.length;\n   }\n\n   function getSubjectById(uint _id) constant returns (bytes32 _subject) {\n      if( _id >= subjects.length ) {\n         _subject = \"\";\n         return;\n      }\n      _subject = subjects[_id];\n   }\n\n   function getDataCounterForSubject(uint _subjectId) constant returns (uint _counter) {\n      if( _subjectId >= subjects.length ) {\n         _counter = 0;\n         return;\n      }\n      bytes32 ident = getSubjectIdentById(_subjectId);\n      _counter = data[ident].length;\n   }\n\n   function getSubjectIdentById(uint _subjectId) constant returns (bytes32 _ident) {\n      if( _subjectId >= subjects.length ) {\n         _ident = \"\";\n         return;\n      }\n      _ident = sha3(subjects[_subjectId]);\n   }\n\n   function getDataPointForSubject(uint _subjectId, uint _dataPointId) constant returns (uint _timestamp, bytes32 _json) {\n      if( _subjectId >= subjects.length ) {\n         _timestamp = 0;\n         _json = \"\";\n         return;\n      }\n\n      bytes32 ident = getSubjectIdentById(_subjectId);\n      if(_dataPointId >= data[ident].length) {\n         _timestamp = 0;\n         _json = \"\";\n         return;\n      }\n\n      _timestamp = data[ident][_dataPointId].timestamp;\n      _json = data[ident][_dataPointId].json;\n   }\n\n   // add modifier dateBeforeStart in the production release\n   function addSubject(bytes32 _subject) croOnly returns (bool _success)  {\n      subjects.push(_subject);\n      AddSubject(msg.sender,_subject,block.timestamp);\n      return true;\n   }\n\n   // add modifier trialIdOpen in the production release\n   function addDataPoint(uint _subjectId, bytes32 _json) croOnly trialIdOpen returns (bool _success)  {\n      if( _subjectId >= subjects.length ) {\n         throw;\n      }\n\n      bytes32 ident = getSubjectIdentById(_subjectId);\n      DataPoint memory dp;\n      dp.timestamp = now;\n      dp.json = _json;\n\n      data[ident].push(dp);\n      return true;\n   }\n}",
  "sourcePath": "/Users/jmarquez/Documents/workspace/BEAN-seed/contracts/ClinicalTrial.sol",
  "compiler": {
    "name": "solc",
    "version": "0.4.19+commit.c4cbbb05.Emscripten.clang"
  },
  "schemaVersion": "1.0.1",
  "updatedAt": "2018-02-09T08:18:19.571Z"
}