{
  "contractName": "Regulator",
  "abi": [
    {
      "inputs": [],
      "payable": false,
      "stateMutability": "nonpayable",
      "type": "constructor"
    },
    {
      "anonymous": false,
      "inputs": [
        {
          "indexed": false,
          "name": "msgSender",
          "type": "address"
        },
        {
          "indexed": false,
          "name": "msg",
          "type": "bytes32"
        },
        {
          "indexed": false,
          "name": "timestamp",
          "type": "uint256"
        }
      ],
      "name": "ProposalSubmitted",
      "type": "event"
    },
    {
      "anonymous": false,
      "inputs": [
        {
          "indexed": false,
          "name": "msgSender",
          "type": "address"
        },
        {
          "indexed": false,
          "name": "msg",
          "type": "bytes32"
        },
        {
          "indexed": false,
          "name": "timestamp",
          "type": "uint256"
        }
      ],
      "name": "ProposalAccepted",
      "type": "event"
    },
    {
      "anonymous": false,
      "inputs": [
        {
          "indexed": false,
          "name": "msgSender",
          "type": "address"
        },
        {
          "indexed": false,
          "name": "msg",
          "type": "bytes32"
        },
        {
          "indexed": false,
          "name": "timestamp",
          "type": "uint256"
        }
      ],
      "name": "ProposalRejected",
      "type": "event"
    },
    {
      "anonymous": false,
      "inputs": [
        {
          "indexed": false,
          "name": "msgSender",
          "type": "address"
        },
        {
          "indexed": false,
          "name": "msg",
          "type": "bytes32"
        },
        {
          "indexed": false,
          "name": "timestamp",
          "type": "uint256"
        }
      ],
      "name": "AddCRO",
      "type": "event"
    },
    {
      "anonymous": false,
      "inputs": [
        {
          "indexed": false,
          "name": "msgSender",
          "type": "address"
        },
        {
          "indexed": false,
          "name": "msg",
          "type": "bytes32"
        },
        {
          "indexed": false,
          "name": "timestamp",
          "type": "uint256"
        }
      ],
      "name": "UpdateCROStatus",
      "type": "event"
    },
    {
      "anonymous": false,
      "inputs": [
        {
          "indexed": false,
          "name": "msgSender",
          "type": "address"
        },
        {
          "indexed": false,
          "name": "msg",
          "type": "bytes32"
        },
        {
          "indexed": false,
          "name": "timestamp",
          "type": "uint256"
        }
      ],
      "name": "RegulatoryContractDeployed",
      "type": "event"
    },
    {
      "anonymous": false,
      "inputs": [
        {
          "indexed": false,
          "name": "msgSender",
          "type": "address"
        },
        {
          "indexed": false,
          "name": "msg",
          "type": "bytes32"
        },
        {
          "indexed": false,
          "name": "timestamp",
          "type": "uint256"
        }
      ],
      "name": "ClinicalTrialContractDeployed",
      "type": "event"
    },
    {
      "anonymous": false,
      "inputs": [
        {
          "indexed": false,
          "name": "msgSender",
          "type": "address"
        },
        {
          "indexed": false,
          "name": "msg",
          "type": "bytes"
        },
        {
          "indexed": false,
          "name": "timestamp",
          "type": "uint256"
        }
      ],
      "name": "UploadTrialProtocol",
      "type": "event"
    },
    {
      "constant": false,
      "inputs": [
        {
          "name": "_drugName",
          "type": "bytes32"
        },
        {
          "name": "_startDate",
          "type": "uint32"
        },
        {
          "name": "_endDate",
          "type": "uint32"
        }
      ],
      "name": "submitProposal",
      "outputs": [],
      "payable": false,
      "stateMutability": "nonpayable",
      "type": "function"
    },
    {
      "constant": true,
      "inputs": [
        {
          "name": "_id",
          "type": "uint32"
        },
        {
          "name": "_docHash",
          "type": "bytes"
        }
      ],
      "name": "submitTrialProtocolDocument",
      "outputs": [
        {
          "name": "_docIpfsHash",
          "type": "bytes"
        }
      ],
      "payable": false,
      "stateMutability": "view",
      "type": "function"
    },
    {
      "constant": true,
      "inputs": [],
      "name": "getProposalsCount",
      "outputs": [
        {
          "name": "_counter",
          "type": "uint256"
        }
      ],
      "payable": false,
      "stateMutability": "view",
      "type": "function"
    },
    {
      "constant": true,
      "inputs": [
        {
          "name": "_id",
          "type": "uint32"
        }
      ],
      "name": "getProposalById",
      "outputs": [
        {
          "name": "_croAddr",
          "type": "address"
        },
        {
          "name": "_drugName",
          "type": "bytes32"
        },
        {
          "name": "_startDate",
          "type": "uint32"
        },
        {
          "name": "_endDate",
          "type": "uint32"
        },
        {
          "name": "_ipfsHash",
          "type": "bytes"
        },
        {
          "name": "_status",
          "type": "int256"
        },
        {
          "name": "_trial",
          "type": "address"
        }
      ],
      "payable": false,
      "stateMutability": "view",
      "type": "function"
    },
    {
      "constant": true,
      "inputs": [
        {
          "name": "_id",
          "type": "uint256"
        }
      ],
      "name": "acceptProposal",
      "outputs": [
        {
          "name": "_clinicalTrial",
          "type": "address"
        }
      ],
      "payable": false,
      "stateMutability": "view",
      "type": "function"
    },
    {
      "constant": false,
      "inputs": [
        {
          "name": "_id",
          "type": "uint256"
        }
      ],
      "name": "rejectProposal",
      "outputs": [],
      "payable": false,
      "stateMutability": "nonpayable",
      "type": "function"
    },
    {
      "constant": false,
      "inputs": [
        {
          "name": "_name",
          "type": "bytes32"
        },
        {
          "name": "_url",
          "type": "bytes32"
        }
      ],
      "name": "submitCro",
      "outputs": [],
      "payable": false,
      "stateMutability": "nonpayable",
      "type": "function"
    },
    {
      "constant": false,
      "inputs": [
        {
          "name": "_addr",
          "type": "address"
        },
        {
          "name": "_status",
          "type": "uint8"
        }
      ],
      "name": "changeCroStatus",
      "outputs": [],
      "payable": false,
      "stateMutability": "nonpayable",
      "type": "function"
    },
    {
      "constant": true,
      "inputs": [],
      "name": "getCrosCounter",
      "outputs": [
        {
          "name": "_counter",
          "type": "uint256"
        }
      ],
      "payable": false,
      "stateMutability": "view",
      "type": "function"
    },
    {
      "constant": true,
      "inputs": [
        {
          "name": "_id",
          "type": "uint256"
        }
      ],
      "name": "getCroById",
      "outputs": [
        {
          "name": "_name",
          "type": "bytes32"
        },
        {
          "name": "_url",
          "type": "bytes32"
        },
        {
          "name": "_addr",
          "type": "address"
        },
        {
          "name": "_status",
          "type": "int256"
        }
      ],
      "payable": false,
      "stateMutability": "view",
      "type": "function"
    }
  ],
  "bytecode": "0x6060604052341561000f57600080fd5b336000806101000a81548173ffffffffffffffffffffffffffffffffffffffff021916908373ffffffffffffffffffffffffffffffffffffffff1602179055507f60f99522b536c17416c6437629f9457c53e08255757ed53dc170c464a6acc9023342604051808373ffffffffffffffffffffffffffffffffffffffff1673ffffffffffffffffffffffffffffffffffffffff168152602001807f4d696e65640000000000000000000000000000000000000000000000000000008152506020018281526020019250505060405180910390a161291b806100f16000396000f300606060405260043610620000af576000357c0100000000000000000000000000000000000000000000000000000000900463ffffffff168063371a4ea814620000b457806348d51a0d14620001fe5780635b48e66a146200024657806360c5cc3a146200028e5780638ee553cc14620002f457806398e527d3146200037f578063ad615f4014620003ab578063bc28d87814620003d7578063e87ece2b14620003fd578063f94a322314620004e8575b600080fd5b3415620000c057600080fd5b620000de600480803563ffffffff169060200190919050506200051f565b604051808873ffffffffffffffffffffffffffffffffffffffff1673ffffffffffffffffffffffffffffffffffffffff16815260200187600019166000191681526020018663ffffffff1663ffffffff1681526020018563ffffffff1663ffffffff168152602001806020018481526020018373ffffffffffffffffffffffffffffffffffffffff1673ffffffffffffffffffffffffffffffffffffffff168152602001828103825285818151815260200191508051906020019080838360005b83811015620001bc5780820151818401526020810190506200019f565b50505050905090810190601f168015620001ea5780820380516001836020036101000a031916815260200191505b509850505050505050505060405180910390f35b34156200020a57600080fd5b6200024460048080356000191690602001909190803563ffffffff1690602001909190803563ffffffff1690602001909190505062000781565b005b34156200025257600080fd5b6200028c600480803573ffffffffffffffffffffffffffffffffffffffff1690602001909190803560ff16906020019091905050620009db565b005b34156200029a57600080fd5b620002b2600480803590602001909190505062000c16565b604051808273ffffffffffffffffffffffffffffffffffffffff1673ffffffffffffffffffffffffffffffffffffffff16815260200191505060405180910390f35b34156200030057600080fd5b6200031860048080359060200190919050506200117c565b60405180856000191660001916815260200184600019166000191681526020018373ffffffffffffffffffffffffffffffffffffffff1673ffffffffffffffffffffffffffffffffffffffff16815260200182815260200194505050505060405180910390f35b34156200038b57600080fd5b6200039562001274565b6040518082815260200191505060405180910390f35b3415620003b757600080fd5b620003c162001281565b6040518082815260200191505060405180910390f35b3415620003e357600080fd5b620003fb60048080359060200190919050506200128e565b005b34156200040957600080fd5b6200046a600480803563ffffffff1690602001909190803590602001908201803590602001908080601f016020809104026020016040519081016040528093929190818152602001838380828437820191505050505050919050506200153f565b6040518080602001828103825283818151815260200191508051906020019080838360005b83811015620004ac5780820151818401526020810190506200048f565b50505050905090810190601f168015620004da5780820380516001836020036101000a031916815260200191505b509250505060405180910390f35b3415620004f457600080fd5b6200051d6004808035600019169060200190919080356000191690602001909190505062001851565b005b6000806000806200052f620019ea565b6000806200053c620019fe565b6002805490508963ffffffff16101515620005575762000775565b60028963ffffffff168154811015156200056d57fe5b906000526020600020906006020160e060405190810160405290816000820160009054906101000a900473ffffffffffffffffffffffffffffffffffffffff1673ffffffffffffffffffffffffffffffffffffffff1673ffffffffffffffffffffffffffffffffffffffff1681526020016001820154600019166000191681526020016002820160009054906101000a900463ffffffff1663ffffffff1663ffffffff1681526020016002820160049054906101000a900463ffffffff1663ffffffff1663ffffffff168152602001600382018054600181600116156101000203166002900480601f016020809104026020016040519081016040528092919081815260200182805460018160011615610100020316600290048015620006d85780601f10620006ac57610100808354040283529160200191620006d8565b820191906000526020600020905b815481529060010190602001808311620006ba57829003601f168201915b50505050508152602001600482015481526020016005820160009054906101000a900473ffffffffffffffffffffffffffffffffffffffff1673ffffffffffffffffffffffffffffffffffffffff1673ffffffffffffffffffffffffffffffffffffffff1681525050905080600001519750806020015196508060400151955080606001519450806080015193508060a0015192508060c0015191505b50919395979092949650565b6200078b620019fe565b33816000019073ffffffffffffffffffffffffffffffffffffffff16908173ffffffffffffffffffffffffffffffffffffffff1681525050838160200190600019169081600019168152505082816040019063ffffffff16908163ffffffff168152505081816060019063ffffffff16908163ffffffff168152505060008160a00181815250506002805480600101828162000828919062001a7f565b9160005260206000209060060201600083909190915060008201518160000160006101000a81548173ffffffffffffffffffffffffffffffffffffffff021916908373ffffffffffffffffffffffffffffffffffffffff1602179055506020820151816001019060001916905560408201518160020160006101000a81548163ffffffff021916908363ffffffff16021790555060608201518160020160046101000a81548163ffffffff021916908363ffffffff16021790555060808201518160030190805190602001906200090192919062001ab4565b5060a0820151816004015560c08201518160050160006101000a81548173ffffffffffffffffffffffffffffffffffffffff021916908373ffffffffffffffffffffffffffffffffffffffff1602179055505050507f0780bbdd3d2f53165e64fb1c03d865aec14003db7ca2805526e2ca67b9487db933826020015142604051808473ffffffffffffffffffffffffffffffffffffffff1673ffffffffffffffffffffffffffffffffffffffff1681526020018360001916600019168152602001828152602001935050505060405180910390a150505050565b60008090505b6001805490508163ffffffff16101562000c11578273ffffffffffffffffffffffffffffffffffffffff1660018263ffffffff1681548110151562000a2257fe5b906000526020600020906004020160020160009054906101000a900473ffffffffffffffffffffffffffffffffffffffff1673ffffffffffffffffffffffffffffffffffffffff16141562000c03578160ff1660018263ffffffff1681548110151562000a8b57fe5b9060005260206000209060040201600301819055506001808263ffffffff1681548110151562000ab757fe5b906000526020600020906004020160030154141562000b69577fd0a366159e9fa1410c9f032dd079ba3daef51d24793fa4122b2ab3ca86afd7d63342604051808373ffffffffffffffffffffffffffffffffffffffff1673ffffffffffffffffffffffffffffffffffffffff168152602001807f417070726f7665640000000000000000000000000000000000000000000000008152506020018281526020019250505060405180910390a162000bfd565b7fd0a366159e9fa1410c9f032dd079ba3daef51d24793fa4122b2ab3ca86afd7d63342604051808373ffffffffffffffffffffffffffffffffffffffff1673ffffffffffffffffffffffffffffffffffffffff168152602001807f52656a65637465640000000000000000000000000000000000000000000000008152506020018281526020019250505060405180910390a15b62000c11565b8080600101915050620009e1565b505050565b600062000c22620019fe565b60006002805490508410151562000c3857600080fd5b60028481548110151562000c4857fe5b906000526020600020906006020160e060405190810160405290816000820160009054906101000a900473ffffffffffffffffffffffffffffffffffffffff1673ffffffffffffffffffffffffffffffffffffffff1673ffffffffffffffffffffffffffffffffffffffff1681526020016001820154600019166000191681526020016002820160009054906101000a900463ffffffff1663ffffffff1663ffffffff1681526020016002820160049054906101000a900463ffffffff1663ffffffff1663ffffffff168152602001600382018054600181600116156101000203166002900480601f01602080910402602001604051908101604052809291908181526020018280546001816001161561010002031660029004801562000db35780601f1062000d875761010080835404028352916020019162000db3565b820191906000526020600020905b81548152906001019060200180831162000d9557829003601f168201915b50505050508152602001600482015481526020016005820160009054906101000a900473ffffffffffffffffffffffffffffffffffffffff1673ffffffffffffffffffffffffffffffffffffffff1673ffffffffffffffffffffffffffffffffffffffff1681525050915060018260a00151141562000e3157600080fd5b6000809054906101000a900473ffffffffffffffffffffffffffffffffffffffff16826000015185846040015185606001518660200151876080015162000e7762001b3b565b808873ffffffffffffffffffffffffffffffffffffffff1673ffffffffffffffffffffffffffffffffffffffff1681526020018773ffffffffffffffffffffffffffffffffffffffff1673ffffffffffffffffffffffffffffffffffffffff1681526020018681526020018563ffffffff1681526020018463ffffffff168152602001836000191660001916815260200180602001828103825283818151815260200191508051906020019080838360005b8381101562000f4657808201518184015260208101905062000f29565b50505050905090810190601f16801562000f745780820380516001836020036101000a031916815260200191505b5098505050505050505050604051809103906000f080151562000f9657600080fd5b90508060028581548110151562000fa957fe5b906000526020600020906006020160050160006101000a81548173ffffffffffffffffffffffffffffffffffffffff021916908373ffffffffffffffffffffffffffffffffffffffff16021790555060016002858154811015156200100a57fe5b9060005260206000209060060201600401819055506002848154811015156200102f57fe5b906000526020600020906006020160050160009054906101000a900473ffffffffffffffffffffffffffffffffffffffff1692507f164f8e8f25b366b322d20f6fe91affcf223fc28cb7a761fb977f5fd5794d6f2c33836020015142604051808473ffffffffffffffffffffffffffffffffffffffff1673ffffffffffffffffffffffffffffffffffffffff1681526020018360001916600019168152602001828152602001935050505060405180910390a17f5fc9d0988c060f868f8303a7fe9cd8cfacef63b532592ff3f1bf39d4740d20183342604051808373ffffffffffffffffffffffffffffffffffffffff1673ffffffffffffffffffffffffffffffffffffffff168152602001807f4d696e65640000000000000000000000000000000000000000000000000000008152506020018281526020019250505060405180910390a15050919050565b6000806000806200118c62001b4c565b60018054905086101515620011a057600080fd5b600186815481101515620011b057fe5b9060005260206000209060040201608060405190810160405290816000820154600019166000191681526020016001820154600019166000191681526020016002820160009054906101000a900473ffffffffffffffffffffffffffffffffffffffff1673ffffffffffffffffffffffffffffffffffffffff1673ffffffffffffffffffffffffffffffffffffffff168152602001600382015481525050905080600001519450806020015193508060400151925080606001519150509193509193565b6000600280549050905090565b6000600180549050905090565b62001298620019fe565b60028054905082101515620012ac57600080fd5b60028083815481101515620012bd57fe5b906000526020600020906006020160040181905550600282815481101515620012e257fe5b906000526020600020906006020160e060405190810160405290816000820160009054906101000a900473ffffffffffffffffffffffffffffffffffffffff1673ffffffffffffffffffffffffffffffffffffffff1673ffffffffffffffffffffffffffffffffffffffff1681526020016001820154600019166000191681526020016002820160009054906101000a900463ffffffff1663ffffffff1663ffffffff1681526020016002820160049054906101000a900463ffffffff1663ffffffff1663ffffffff168152602001600382018054600181600116156101000203166002900480601f0160208091040260200160405190810160405280929190818152602001828054600181600116156101000203166002900480156200144d5780601f1062001421576101008083540402835291602001916200144d565b820191906000526020600020905b8154815290600101906020018083116200142f57829003601f168201915b50505050508152602001600482015481526020016005820160009054906101000a900473ffffffffffffffffffffffffffffffffffffffff1673ffffffffffffffffffffffffffffffffffffffff1673ffffffffffffffffffffffffffffffffffffffff168152505090507f3b84ac162fc3c99b2df7b7760d21ec7b35ed27f82cfdc2d68a28e1b13b5345a58160000151826020015184604051808473ffffffffffffffffffffffffffffffffffffffff1673ffffffffffffffffffffffffffffffffffffffff1681526020018360001916600019168152602001828152602001935050505060405180910390a15050565b62001549620019ea565b62001553620019fe565b6002805490508463ffffffff161015156200156e576200184a565b60028463ffffffff168154811015156200158457fe5b906000526020600020906006020160e060405190810160405290816000820160009054906101000a900473ffffffffffffffffffffffffffffffffffffffff1673ffffffffffffffffffffffffffffffffffffffff1673ffffffffffffffffffffffffffffffffffffffff1681526020016001820154600019166000191681526020016002820160009054906101000a900463ffffffff1663ffffffff1663ffffffff1681526020016002820160049054906101000a900463ffffffff1663ffffffff1663ffffffff168152602001600382018054600181600116156101000203166002900480601f016020809104026020016040519081016040528092919081815260200182805460018160011615610100020316600290048015620016ef5780601f10620016c357610100808354040283529160200191620016ef565b820191906000526020600020905b815481529060010190602001808311620016d157829003601f168201915b50505050508152602001600482015481526020016005820160009054906101000a900473ffffffffffffffffffffffffffffffffffffffff1673ffffffffffffffffffffffffffffffffffffffff1673ffffffffffffffffffffffffffffffffffffffff16815250509050828160800181905250806080015191507fe9f5c2c5764f71d4bade320ab7bae394f9eec12984930a09249dee6d92ea8b2d33826080015142604051808473ffffffffffffffffffffffffffffffffffffffff1673ffffffffffffffffffffffffffffffffffffffff16815260200180602001838152602001828103825284818151815260200191508051906020019080838360005b838110156200180c578082015181840152602081019050620017ef565b50505050905090810190601f1680156200183a5780820380516001836020036101000a031916815260200191505b5094505050505060405180910390a15b5092915050565b6200185b62001b4c565b8281600001906000191690816000191681525050818160200190600019169081600019168152505033816040019073ffffffffffffffffffffffffffffffffffffffff16908173ffffffffffffffffffffffffffffffffffffffff1681525050600081606001818152505060018054806001018281620018dc919062001b91565b91600052602060002090600402016000839091909150600082015181600001906000191690556020820151816001019060001916905560408201518160020160006101000a81548173ffffffffffffffffffffffffffffffffffffffff021916908373ffffffffffffffffffffffffffffffffffffffff160217905550606082015181600301555050507f4692aac2d0f6b8fd9e4dd5bd1b720129986808c1005bd78af4a8190337c8542233826000015142604051808473ffffffffffffffffffffffffffffffffffffffff1673ffffffffffffffffffffffffffffffffffffffff1681526020018360001916600019168152602001828152602001935050505060405180910390a1505050565b602060405190810160405280600081525090565b60e060405190810160405280600073ffffffffffffffffffffffffffffffffffffffff16815260200160008019168152602001600063ffffffff168152602001600063ffffffff16815260200162001a5562001bc6565b815260200160008152602001600073ffffffffffffffffffffffffffffffffffffffff1681525090565b81548183558181151162001aaf5760060281600602836000526020600020918201910162001aae919062001bda565b5b505050565b828054600181600116156101000203166002900490600052602060002090601f016020900481019282601f1062001af757805160ff191683800117855562001b28565b8280016001018555821562001b28579182015b8281111562001b2757825182559160200191906001019062001b0a565b5b50905062001b37919062001c9a565b5090565b604051610b808062001d7083390190565b6080604051908101604052806000801916815260200160008019168152602001600073ffffffffffffffffffffffffffffffffffffffff168152602001600081525090565b81548183558181151162001bc15760040281600402836000526020600020918201910162001bc0919062001cc2565b5b505050565b602060405190810160405280600081525090565b62001c9791905b8082111562001c9357600080820160006101000a81549073ffffffffffffffffffffffffffffffffffffffff021916905560018201600090556002820160006101000a81549063ffffffff02191690556002820160046101000a81549063ffffffff021916905560038201600062001c5a919062001d23565b60048201600090556005820160006101000a81549073ffffffffffffffffffffffffffffffffffffffff02191690555060060162001be1565b5090565b90565b62001cbf91905b8082111562001cbb57600081600090555060010162001ca1565b5090565b90565b62001d2091905b8082111562001d1c5760008082016000905560018201600090556002820160006101000a81549073ffffffffffffffffffffffffffffffffffffffff021916905560038201600090555060040162001cc9565b5090565b90565b50805460018160011615610100020316600290046000825580601f1062001d4b575062001d6c565b601f01602090049060005260206000209081019062001d6b919062001c9a565b5b5056006060604052341561000f57600080fd5b604051610b80380380610b8083398101604052808051906020019091908051906020019091908051906020019091908051906020019091908051906020019091908051906020019091908051820191905050856000806101000a81548173ffffffffffffffffffffffffffffffffffffffff021916908373ffffffffffffffffffffffffffffffffffffffff16021790555086600160006101000a81548173ffffffffffffffffffffffffffffffffffffffff021916908373ffffffffffffffffffffffffffffffffffffffff1602179055508460028190555083600381905550826004819055508160068160001916905550806007908051906020019061011892919061012c565b5042600581905550505050505050506101d1565b828054600181600116156101000203166002900490600052602060002090601f016020900481019282601f1061016d57805160ff191683800117855561019b565b8280016001018555821561019b579182015b8281111561019a57825182559160200191906001019061017f565b5b5090506101a891906101ac565b5090565b6101ce91905b808211156101ca5760008160009055506001016101b2565b5090565b90565b6109a0806101e06000396000f3006060604052600436106100c5576000357c0100000000000000000000000000000000000000000000000000000000900463ffffffff1680630b97bc86146100ca5780630e6e1b3e146100f35780632c420201146101325780632dfca4451461016957806344fbc893146101925780634d392e49146101bb5780635188ab7b146101fa5780636207c8021461022b578063950d37c51461026a5780639f73bef1146102b9578063c24a0f8b146102e2578063c623674f1461030b578063cb758a8914610399575b600080fd5b34156100d557600080fd5b6100dd6103e1565b6040518082815260200191505060405180910390f35b34156100fe57600080fd5b6101186004808035600019169060200190919050506103e7565b604051808215151515815260200191505060405180910390f35b341561013d57600080fd5b61015360048080359060200190919050506104f7565b6040518082815260200191505060405180910390f35b341561017457600080fd5b61017c610544565b6040518082815260200191505060405180910390f35b341561019d57600080fd5b6101a561054a565b6040518082815260200191505060405180910390f35b34156101c657600080fd5b6101dc6004808035906020019091905050610550565b60405180826000191660001916815260200191505060405180910390f35b341561020557600080fd5b61020d61058c565b60405180826000191660001916815260200191505060405180910390f35b341561023657600080fd5b61024c6004808035906020019091905050610592565b60405180826000191660001916815260200191505060405180910390f35b341561027557600080fd5b61029460048080359060200190919080359060200190919050506105eb565b6040518083815260200182600019166000191681526020019250505060405180910390f35b34156102c457600080fd5b6102cc6106cb565b6040518082815260200191505060405180910390f35b34156102ed57600080fd5b6102f56106d8565b6040518082815260200191505060405180910390f35b341561031657600080fd5b61031e6106de565b6040518080602001828103825283818151815260200191508051906020019080838360005b8381101561035e578082015181840152602081019050610343565b50505050905090810190601f16801561038b5780820380516001836020036101000a031916815260200191505b509250505060405180910390f35b34156103a457600080fd5b6103c760048080359060200190919080356000191690602001909190505061077c565b604051808215151515815260200191505060405180910390f35b60035481565b60008060009054906101000a900473ffffffffffffffffffffffffffffffffffffffff1673ffffffffffffffffffffffffffffffffffffffff163373ffffffffffffffffffffffffffffffffffffffff1614151561044457600080fd5b6008805480600101828161045891906108a5565b9160005260206000209001600084909190915090600019169055507f98f911b35e4f0185da844cf074d0b20f1c07738e062e10a540d0e30abf5ff967338342604051808473ffffffffffffffffffffffffffffffffffffffff1673ffffffffffffffffffffffffffffffffffffffff1681526020018360001916600019168152602001828152602001935050505060405180910390a160019050919050565b60008060088054905083101515610511576000915061053e565b61051a83610592565b90506009600082600019166000191681526020019081526020016000208054905091505b50919050565b60025481565b60055481565b6000600880549050821015156105695760009050610587565b60088281548110151561057857fe5b90600052602060002090015490505b919050565b60065481565b6000600880549050821015156105ab57600090506105e6565b6008828154811015156105ba57fe5b906000526020600020900154604051808260001916600019168152602001915050604051809103902090505b919050565b60008060006008805490508510151561060b5760009250600091506106c3565b61061485610592565b9050600960008260001916600019168152602001908152602001600020805490508410151561064a5760009250600091506106c3565b6009600082600019166000191681526020019081526020016000208481548110151561067257fe5b9060005260206000209060020201600001549250600960008260001916600019168152602001908152602001600020848154811015156106ae57fe5b90600052602060002090600202016001015491505b509250929050565b6000600880549050905090565b60045481565b60078054600181600116156101000203166002900480601f0160208091040260200160405190810160405280929190818152602001828054600181600116156101000203166002900480156107745780601f1061074957610100808354040283529160200191610774565b820191906000526020600020905b81548152906001019060200180831161075757829003601f168201915b505050505081565b6000806107876108d1565b6000809054906101000a900473ffffffffffffffffffffffffffffffffffffffff1673ffffffffffffffffffffffffffffffffffffffff163373ffffffffffffffffffffffffffffffffffffffff161415156107e257600080fd5b6003544210806107f3575060045442115b156107fd57600080fd5b6008805490508510151561081057600080fd5b61081985610592565b9150428160000181815250508381602001906000191690816000191681525050600960008360001916600019168152602001908152602001600020805480600101828161086691906108ee565b91600052602060002090600202016000839091909150600082015181600001556020820151816001019060001916905550505060019250505092915050565b8154818355818115116108cc578183600052602060002091820191016108cb9190610920565b5b505050565b604080519081016040528060008152602001600080191681525090565b81548183558181151161091b5760020281600202836000526020600020918201910161091a9190610945565b5b505050565b61094291905b8082111561093e576000816000905550600101610926565b5090565b90565b61097191905b8082111561096d5760008082016000905560018201600090555060020161094b565b5090565b905600a165627a7a723058204f8929c099c9f948b813bbd9bb23713a558c2a5c816c8921ed3475a9ceacb4d00029a165627a7a72305820a02099a3180871024869ba06a7488d048347808ea81539819d0d1b231716fa560029",
  "source": "pragma solidity ^0.4.17;\n\nimport \"./ClinicalTrial.sol\";\n\ncontract Regulator {\n\n   address owner;\n   int constant STATUS_SUBMITTED = 0;\n   int constant STATUS_ACCEPTED  = 1;\n   int constant STATUS_REJECTED  = 2;\n\n   event ProposalSubmitted(address msgSender,bytes32 msg,uint timestamp);\n   event ProposalAccepted (address msgSender,bytes32 msg,uint timestamp);\n   event ProposalRejected (address msgSender,bytes32 msg,uint timestamp);\n\n   event AddCRO (address msgSender,bytes32 msg,uint timestamp);\n   event UpdateCROStatus (address msgSender,bytes32 msg,uint timestamp);\n   event RegulatoryContractDeployed (address msgSender,bytes32 msg,uint timestamp);\n   event ClinicalTrialContractDeployed (address msgSender,bytes32 msg,uint timestamp);\n   event UploadTrialProtocol (address msgSender,bytes msg,uint timestamp);\n\n   struct CroIdentity {\n      bytes32  name;\n      bytes32  url;\n      address addr;\n      int   status;  //values: SUBMITTED, ACCEPTED, REJECTED\n   }\n\n   struct TrialProposal {\n      address croAddr;\n      bytes32  drugName;\n      uint32  startDate;\n      uint32  endDate;\n      bytes  ipfsHash;\n      int   status; // values: SUBMITTED, ACCEPTED, REJECTED\n      address trial;  // clinical trial contract; 0x0 if none\n   }\n\n   CroIdentity[]cros;\n   TrialProposal[]proposals;\n\n   modifier crosOnly {\n      bool found = false;\n      for (uint32 i = 0; i < cros.length; i++) {\n         if (cros[i].addr == msg.sender && cros[i].status == STATUS_ACCEPTED) {\n            found = true;\n            break;\n         }\n      }\n      if (!found) \n       revert();\n      _;\n   }\n\n   modifier ownerOnly {\n      if (msg.sender != owner) \n       revert();\n      _;\n   }\n\n   function Regulator() {\n      owner = msg.sender;\n      RegulatoryContractDeployed(msg.sender,\"Mined\",block.timestamp);\n   }\n\n   function submitProposal(bytes32 _drugName, uint32 _startDate, uint32 _endDate) {\n\n      TrialProposal memory proposal;\n      proposal.croAddr   = msg.sender;\n      proposal.drugName  = _drugName;\n      proposal.startDate = _startDate;\n      proposal.endDate   = _endDate;\n      proposal.status    = STATUS_SUBMITTED;\n\n      proposals.push(proposal);\n\n      ProposalSubmitted(msg.sender,proposal.drugName,block.timestamp);\n   }\n\n   function submitTrialProtocolDocument(uint32 _id, bytes _docHash) constant returns (bytes _docIpfsHash) {\n      if (_id >= proposals.length) {\n         return;\n      }\n      TrialProposal memory tp = proposals[_id];\n      tp.ipfsHash = _docHash;\n      _docIpfsHash = tp.ipfsHash;\n      UploadTrialProtocol (msg.sender,tp.ipfsHash,block.timestamp);\n   }\n\n   function getProposalsCount() constant returns (uint _counter) {\n      _counter = proposals.length;\n   }\n\n   function getProposalById(uint32 _id) constant returns(address _croAddr, bytes32 _drugName, uint32 _startDate, uint32 _endDate, bytes _ipfsHash, int _status, address _trial) {\n      if (_id >= proposals.length) {\n         return;\n      }\n      TrialProposal memory tp = proposals[_id];\n      _croAddr = tp.croAddr;\n      _drugName = tp.drugName;\n      _startDate = tp.startDate;\n      _endDate = tp.endDate;\n      _ipfsHash = tp.ipfsHash;\n      _status = tp.status;\n      _trial = tp.trial;\n   }\n\n   function acceptProposal(uint _id) constant returns (address _clinicalTrial) {\n\n      if(_id >= proposals.length) {\n         revert();\n      }\n\n      TrialProposal memory tp = proposals[_id];\n      if (tp.status == STATUS_ACCEPTED) {\n         revert();\n      }\n\n      // deploy the actual clinical trial contract and return it\n      ClinicalTrial trial = new ClinicalTrial(owner, tp.croAddr, _id, tp.startDate, tp.endDate, tp.drugName, tp.ipfsHash);\n\n      proposals[_id].trial = trial;\n      proposals[_id].status = STATUS_ACCEPTED;\n\n      _clinicalTrial = proposals[_id].trial;\n\n      ProposalAccepted (msg.sender,tp.drugName,block.timestamp);\n      ClinicalTrialContractDeployed (msg.sender,\"Mined\",block.timestamp);\n   }\n\n   function rejectProposal(uint _id) {\n\n      if (_id >= proposals.length) {\n         revert();\n      }\n\n      proposals[_id].status = STATUS_REJECTED;\n\n      TrialProposal memory tp = proposals[_id];\n      ProposalRejected (tp.croAddr, tp.drugName, _id);\n   }\n\n   function submitCro(bytes32 _name, bytes32 _url) {\n      CroIdentity memory cro;\n      cro.name = _name;\n      cro.url = _url;\n      cro.addr = msg.sender;\n      cro.status = STATUS_SUBMITTED;\n\n      cros.push(cro);\n\n      AddCRO(msg.sender,cro.name,block.timestamp);\n   }\n\n   function changeCroStatus(address _addr, uint8 _status) {\n      for (uint32 i = 0; i < cros.length; i++) {\n         if (cros[i].addr == _addr) {\n            cros[i].status = _status;\n            if (cros[i].status == STATUS_ACCEPTED) {\n               UpdateCROStatus(msg.sender,\"Approved\",block.timestamp);\n            } else {\n               UpdateCROStatus(msg.sender,\"Rejected\",block.timestamp);\n            }\n            break;\n         }\n      }\n      \n   }\n\n   function getCrosCounter() constant returns (uint _counter) {\n      _counter = cros.length;\n   }\n\n   function getCroById(uint _id) constant returns(bytes32 _name, bytes32 _url, address _addr, int _status) {\n\n      if (_id >= cros.length) {\n         revert();\n      }\n\n      CroIdentity memory ci = cros[_id];\n      _name = ci.name;\n      _url = ci.url;\n      _addr = ci.addr;\n      _status = ci.status;\n   }\n\n}",
  "sourcePath": "/Users/jmarquez/Documents/workspace/BEAN-seed/contracts/Regulator.sol",
  "compiler": {
    "name": "solc",
    "version": "0.4.19+commit.c4cbbb05.Emscripten.clang"
  },
  "schemaVersion": "1.0.1",
  "updatedAt": "2018-02-09T08:18:19.573Z"
}